:020000040800F2
:1000000088690020CD010008290D0008210D000895
:10001000250D0008870200086D1C00080000000084
:10002000000000000000000000000000C1110008F6
:100030008B0200080000000069100008E1140008AD
:10004000E7010008E7010008E7010008E7010008F0
:10005000E7010008E7010008E7010008E7010008E0
:10006000E7010008E7010008E7010008E7010008D0
:10007000E7010008E7010008E7010008E7010008C0
:10008000E7010008E7010008E7010008E7010008B0
:10009000E7010008E7010008E7010008E7010008A0
:1000A000E7010008E7010008E7010008E701000890
:1000B000E701000845150008E7010008E70100080E
:1000C000E7010008E7010008E7010008E701000870
:1000D000E701000865170008F1170008E7010008AC
:1000E000E7010008E7010008E7010008E701000850
:1000F000E7010008E7010008E7010008E701000840
:10010000E7010008E7010008E7010008E70100082F
:10011000E7010008E7010008E7010008E70100081F
:10012000E7010008E7010008E7010008E70100080F
:1001300000F002F800F03AF80AA090E8000C8244BF
:100140008344AAF10107DA4501D100F02FF8AFF29C
:10015000090EBAE80F0013F0010F18BFFB1A43F0A5
:1001600001031847A4240000C4240000103A24BF4F
:1001700078C878C1FAD8520724BF30C830C144BF0C
:1001800004680C607047000000230024002500264E
:10019000103A28BF78C1FBD8520728BF30C148BFEA
:1001A0000B6070471FB51FBD10B510BD00F031F8D2
:1001B0001146FFF7F7FF02F0E5F900F04FF803B43E
:1001C000FFF7F2FF03BC00F057F800000948804732
:1001D00009480047FEE7FEE7FEE7FEE7FEE7FEE729
:1001E000FEE7FEE7FEE7FEE704480549054A064B41
:1001F00070470000E5140008310100088861002004
:100200008869002088630020886300207047704759
:100210007047754600F02CF8AE4605006946534617
:1002200020F00700854618B020B5FFF7DDFFBDE8D8
:1002300020404FF000064FF000074FF000084FF04D
:10024000000B21F00701AC46ACE8C009ACE8C009DE
:10025000ACE8C009ACE8C0098D46704710B504464B
:10026000AFF300802046BDE81040FFF7A8BF0000B4
:10027000004870472861002001491820ABBEFEE706
:1002800026000200704700BFFEE770470149C860C2
:10029000704700000020024030B5044604254FF4AA
:1002A000302000F06FF80546042D17D10C48006986
:1002B00040F002000A49086108464461006940F0C4
:1002C000400008614FF4302000F05CF80546044817
:1002D000006941F6FD71084001490861284630BDBA
:1002E0000020024004200B49C96801F0010109B156
:1002F00001200EE00749C96801F0040109B102209C
:1003000007E00449C96801F0100109B1032000E0C9
:1003100004207047002002400348006940F080003C
:1003200001490861704700000020024070B5044692
:100330000D460426F00200F025F80646042E11D1E1
:100340000948006940F00100074908612580F00272
:1003500000F018F806460448006941F6FE710840AE
:1003600001490861304670BD00200240024803493F
:1003700048600348486070472301674500200240F9
:10038000AB89EFCD00B502460423FFF7ABFF034670
:1003900003E0FFF7A7FF0346521E012B01D1002AFD
:1003A000F7D102B90523184600BD000070B5054617
:1003B00000240026012080F3108800BFFFF7D6FF3D
:1003C0003420FFF763FF2846FFF766FF00BF11E008
:1003D0000D4810F81410012000EB44000A4A105C8C
:1003E00001EB002086B231462846FFF79FFFAD1C87
:1003F000601C84B2B4F5806FEADBFFF78DFF00204C
:1004000080F3108800BF70BDB23300202DE9F041A9
:1004100004460D4616461F46C4F30A00201A4949F1
:10042000086008460068484988427DD30020474953
:10043000086011E0434800684349401A434909688D
:1004400008444349085C4349404A126888543F487D
:100450000068401C3D4908603C480068B0F5006FEA
:10046000E8D3C4F30A003949086028E03748006837
:10047000B0F5006F0BD2C4F30A0034490968081ABA
:100480003044295C3348314A1268815412E0C4F385
:100490000A002E490968081A3044295C2B48006874
:1004A000A0F500602C4A115428480088A0F500608F
:1004B0002A49088025480068401C24490860C4F384
:1004C0000A003844214909688842CFD81D4800688D
:1004D000FFF76CFF21480088002831DD00201B4910
:1004E000086020E0194800681C490988884208D83B
:1004F000194816490968415C1648144A1268815423
:100500000CE0104800681649401A10490968084470
:100510000F49085C0F490D4A126888540B4800685F
:10052000401C0A49086000E00AE008480068B0F58D
:10053000006FD7D30348006800F50060FFF736FF6F
:10054000BDE8F081400000200000010844000020C8
:1005500000000108B2330020B24300204800002010
:1005600000F800082DE9F041024600250026002091
:1005700000230024002791F803C00CF00F0591F828
:1005800003C00CF0100CBCF1000F03D091F802C0B6
:100590004CEA050591F800C0BCF1000F31D0146899
:1005A00000202BE04FF0010C0CFA00F3B1F800C072
:1005B0000CEA03069E4220D183004FF00F0C0CFA88
:1005C00003F7BC4305FA03FC4CEA040491F803C0AA
:1005D000BCF1280F06D14FF0010C0CFA00FCC2F858
:1005E00014C00AE091F803C0BCF1480F05D14FF0E8
:1005F000010C0CFA00FCC2F810C0401C0828D1D332
:100600001460B1F800C0BCF1FF0F34DD5468002065
:100610002EE000F1080C4FF0010808FA0CF3B1F8D5
:1006200000C00CEA03069E4221D183004FF00F0C5C
:100630000CFA03F7BC4305FA03FC4CEA040491F8F6
:1006400003C0BCF1280F05D100F1080C08FA0CF822
:10065000C2F8148091F803C0BCF1480F07D100F133
:10066000080C4FF0010808FA0CF8C2F81080401C82
:100670000828CED35460BDE8F081000010B50121F8
:100680003C2000F013FD0121084600F0F3FA01219F
:10069000FE4800F0EFFA0220FD4988700020FD4975
:1006A0000870D8E20020FA490880FA480078082843
:1006B00025D2DFE800F004080C1014181C200020DC
:1006C000F349C8701BE00420F149C87017E02820E6
:1006D000EF49C87013E04820ED49C8700FE01420BE
:1006E000EB49C8700BE01020E949C87007E01C20F6
:1006F000E749C87003E01820E549C87000BF00BF93
:10070000E4480078012805D1E148008840F0010064
:10071000DF490880DF480078012805D1DC480088DF
:1007200040F00200DA490880DA480078072805D14D
:10073000D748008840F00400D5490880D5480078A3
:10074000012805D1D248008840F00800D04908802F
:10075000D0480078012805D1CD48008840F010002D
:10076000CB490880CB480078012805D1C8480088CB
:1007700040F02000C6490880C6480078012805D10D
:10078000C348008840F04000C1490880C148007853
:10079000022805D1BE48008840F08000BC4908808E
:1007A000BC480078022805D1B948008840F4807020
:1007B000B7490880B7480078072805D1B4480088B1
:1007C00040F40070B2490880B2480078012805D191
:1007D000AF48008840F48060AD490880AD4800789B
:1007E000012805D1AA48008840F40060A849088083
:1007F000A8480078072805D1A548008840F4805013
:10080000A3490880A3480078022805D1A0480088A1
:1008100040F400509E4908809E480078052805D184
:100820009B48008840F480409949088099480078A6
:10083000012805D19648008840F40040944908807A
:1008400093499548FFF78EFE002091490880914812
:100850000078022804D10846008840F00100088092
:100860008C480078022805D18948008840F00200B1
:100870008749088087480078022805D18448008885
:1008800040F004008249088082480078052805D19C
:100890007F48008840F008007D4908807D48007846
:1008A000052805D17A48008840F010007849088072
:1008B00078480078022805D17548008840F020006B
:1008C0007349088073480078052805D1704800886E
:1008D00040F040006E4908806E480078022805D13B
:1008E0006B48008840F080006949088069480078BA
:1008F000022805D16648008840F480706449088069
:1009000064480078022805D16148008840F40070EE
:100910005F4908805F480078022805D15C4800885C
:1009200040F480605A4908805A480078052805D16B
:100930005748008840F400605549088055480078C1
:10094000052805D15248008840F48050504908805D
:1009500050480078052805D14D48008840F40050E3
:100960004B4908804B480078052805D14848008845
:1009700040F480404649088046480078052805D163
:100980004348008840F400404149088040494348BA
:10099000FFF7E8FD00203E4908803E480078052822
:1009A00004D10846008840F00100088039480078EA
:1009B000012805D13648008840F0020034490880FB
:1009C00034480078012805D13148008840F00400FF
:1009D0002F4908802F480078012805D12C4800882D
:1009E00040F008002A4908802A480078012805D1EB
:1009F0002748008840F010002549088025480078E5
:100A0000022805D12248008840F0200020490880B3
:100A100020480078052805D11D48008840F0400096
:100A20001B4908801B480078052805D11848008814
:100A300040F080001649088016480078052805D146
:100A40001348008840F480701149088011480078EC
:100A5000052805D10E48008840F400700C49088034
:100A60000C480078052805D10948008840F48060CA
:100A70000749088007480078052805D10448008800
:100A800040F4006002490880024809E0000230009A
:100A9000140000201800002000080140000C014054
:100AA0000078052805D16F48008840F480506D49D2
:100AB00008806D480078022805D16A48008840F413
:100AC00000506849088068480078022805D16548C8
:100AD000008840F480406349088063480078022819
:100AE00005D16048008840F400405E4908805D49B7
:100AF0005E48FFF737FD00205A4908805A480078C1
:100B0000012804D10846008840F0010008805648BA
:100B10000078012805D15348008840F0020051496F
:100B2000088051480078052805D14E48008840F0DB
:100B300004004C4908804C480078012805D14948F8
:100B4000008840F00800474908804748007801289D
:100B500005D14448008840F01000424908804248CE
:100B60000078012805D13F48008840F020003D4929
:100B700008803D480078012805D13A48008840F0B7
:100B800040003849088038480078012805D13548A8
:100B9000008840F0800033490880334800780128FD
:100BA00005D13048008840F480702E4908802E48D6
:100BB0000078012805D12B48008840F400702949AD
:100BC000088029480078012805D12648008840F48B
:100BD00080602449088024480078012805D12148F4
:100BE000008840F400601F4908801F4800780128F1
:100BF00005D11C48008840F480501A4908801A48E2
:100C00000078012805D11748008840F400501549A4
:100C1000088015480078012805D11248008840F462
:100C200080401049088010480078012805D10D48FF
:100C3000008840F400400B4908800A490C48FFF73F
:100C400091FC01225102094800F065F8064800783D
:100C5000401C05490870044800780828FFF622ADBA
:100C600010BD0000140000201800002000100140FA
:100C700000140140F0B50A4600230024002100259D
:100C800000F00046B6F1004F02D11D4EF16901E0BF
:100C90001B4E7168C0F3034583B200F44016B6F5ED
:100CA000401F08D121F07061154E766826F07066FD
:100CB000134F7E6012E000F48016B6F5801F06D157
:100CC000032606FA05F4A14341F0706106E0460DE3
:100CD000360103FA06F6B14341F0706122B1460DC8
:100CE000360103FA06F6314300F00046B6F1004F34
:100CF00002D1034EF16101E0014E7160F0BD0000D0
:100D0000000001400246002093680B400BB1012017
:100D100000E0002070470AB1016100E041617047C6
:100D200000BFFEE700BFFEE77047000070B500217E
:100D300000230F22C47804B3154C246804F4E06443
:100D4000C4F5E064210AC1F10403CA40447804FAFE
:100D500003F184781440214309010E4C0678A15513
:100D6000047804F01F050124AC4005786D11AD0036
:100D700005F1E025C5F8004109E0047804F01F05FD
:100D80000124AC40044D0678761145F8264070BD2C
:100D90000CED00E000E400E080E100E008B54FF475
:100DA000A06000F039F81D208DF8000002208DF8B9
:100DB00001008DF8020001208DF803006846FFF75E
:100DC000B5FF25208DF8000002208DF801008DF878
:100DD000020001208DF803006846FFF7A7FF2620D8
:100DE0008DF8000002208DF801008DF8020001202E
:100DF0008DF803006846FFF799FF14208DF8000076
:100E000002208DF801008DF8020001208DF803000A
:100E10006846FFF78BFF08BD02490143024A116093
:100E2000704700000000FA050CED00E010B500204E
:100E300072490880DCE07148008800EB400101EB5A
:100E400040206F4911F82000401E6E4931F8100013
:100E500004287DDD6C486949098830F8111067481D
:100E6000008800EB400202EB4020654A12F82000A7
:100E7000401E644A32F8100081426ADD5F4A1288DF
:100E800002EB420303EB42225D4B13F82220521E79
:100E90005C4B33F81220111F584A128802EB4203B0
:100EA00003EB4222564B03EB820001F04DFB04465C
:100EB0005248008800EB400101EB4020504901EB13
:100EC00080014E48008800EB400202EB40204C4A73
:100ED00012F82000401E4B4A32F81000001F085C38
:100EE000B0EB242F3CD14548008800EB400101EBDA
:100EF0004020434901EB80014048008800EB40025C
:100F000002EB40203E4A12F82000401E3D4A32F8D3
:100F10001000C01E085CE1B2884221D100203B498C
:100F2000088014E03548008800EB400101EB4020C8
:100F3000334901EB800035490988405C3449334A24
:100F40001288885431480088401C3049088001E0EC
:100F500028E048E02D48008840F60C018842E1DB9B
:100F600000202949254A128821F8120027490880C3
:100F700011E000202149098801EB410202EB4121E7
:100F80001F4A02EB8101214A128888541F480088B9
:100F9000401C1E4908801D48008840F60C0188420C
:100FA000E7DB20E000201849144A128821F81200DB
:100FB0001649088011E000201049098801EB410220
:100FC00002EB41210E4A02EB8101104A128888543B
:100FD0000E480088401C0D4908800C48008840F6E7
:100FE0000C018842E7DB05480088401C0349088063
:100FF000024800880528FFF61EAF10BD240000201F
:1010000068000020F65C0020922B002026000020C3
:10101000B24B0020014600201EE0114A32F8102099
:10102000002A17DD0E4A32F81020022A0BDD00EBF1
:10103000400202EB40220B4B03EB8203084A32F8DA
:101040001020D21E9954064A32F81020521C044B2C
:1010500023F81020421C90B20528DEDB7047000008
:10106000922B0020680000207047000029B1064A3A
:10107000D2690243044BDA6104E0034AD269824335
:10108000014BDA61704700000010024029B1064AA6
:1010900012690243044B1A6104E0034A1269824355
:1010A000014B1A61704700000010024029B1064A46
:1010B00092690243044B9A6104E0034A92698243B5
:1010C000014B9A61704700000010024029B1064AA6
:1010D000D2680243044BDA6004E0034AD2688243D8
:1010E000014BDA60704700000010024030B500216B
:1010F0000022002400232D4D6D6805F00C0121B164
:10110000042905D0082923D105E0294D056022E0F6
:10111000274D05601FE0254D6D6805F47012234DC5
:101120006D6805F48034022505EB92421CB9214D0F
:10113000554305600BE01D4D6D6805F400351DB18C
:101140001C4D5543056002E0194D5543056002E012
:10115000174D056000BF00BF144D6D6805F0F0012C
:101160000909154D6B5C0568DD4045600F4D6D68E4
:1011700005F4E061090A104D6B5C4568DD4085604F
:101180000A4D6D6805F46051C90A0B4D6B5C4568EA
:10119000DD40C560054D6D6805F44041890B074D84
:1011A0006B5CC568B5FBF3F5056130BD001002400E
:1011B00000127A0000093D0000000020100000200D
:1011C000704710B500F002F810BD00000CB500200B
:1011D000019000903348006840F480303149086045
:1011E00000BF3048006800F4003000900198401CB7
:1011F0000190009818B90198B0F5A06FF1D1294875
:10120000006800F4003010B10120009001E00020DF
:1012100000900098012843D12348006840F0100056
:10122000214908600846006820F00300086008466D
:10123000006840F0020008601A4840681949486098
:101240000846406848600846406840F4806048604E
:101250000846406820F47C1048600846406840F426
:10126000E81048600846006840F08070086000BFE1
:101270000C48006800F000700028F9D00948406868
:1012800020F00300074948600846406840F002002B
:10129000486000BF0348406800F00C000828F9D1FE
:1012A0000CBD0000001002400020024010B50020DC
:1012B00070490880D7E06F480088C0EB001000EB51
:1012C00080006D4911F81000401E6C4931F8100083
:1012D00004287DDD6A486749098830F8111065489F
:1012E0000088C0EB001000EB8000634A12F8100089
:1012F000401E624A32F8100081426ADD5D4A12885F
:10130000C2EB021202EB82025B4B13F81220521E58
:101310005A4B33F81220D11E564A1288C2EB0212E1
:1013200002EB8202544B03EB420001F00DF904463C
:1013300050480088C0EB001000EB80004E4901EBE4
:1013400040014C480088C0EB001000EB80004A4A86
:1013500012F81000401E494A32F81000C01E085C06
:10136000B0EB242F3AD143480088C0EB001000EBCB
:101370008000414901EB40013E480088C0EB00106D
:1013800000EB80003C4A12F81000401E3B4A32F845
:101390001000801E085CE1B288421FD1002039494C
:1013A000088014E033480088C0EB001000EB800098
:1013B000314901EB400033490988415C3248314AE8
:1013C000128881542F480088401C2E49088001E073
:1013D00025E043E02B4800889628E3DB00212848DD
:1013E000244A128820F8121000202649088011E0B3
:1013F000002020490988C1EB011101EB81011E4A3F
:1014000002EB41011F4A128888541E480088401C84
:101410001C4908801B4800889628E9DB1EE0002054
:101420001749144A128821F812001649088011E061
:10143000002010490988C1EB011101EB81010E4A1E
:1014400002EB41010F4A128888540E480088401C64
:101450000C4908800B4800889628E9DB054800887D
:10146000401C04490880034800880528FFF623AF84
:1014700010BD000028000020A4280020F65E0020F7
:101480009C2B00202A000020BE5300200146002093
:101490001EE0114A32F81020002A17DD0E4A32F8F9
:1014A0001020022A0BDDC0EB001202EB82020B4B74
:1014B00003EB4203084A32F81020D21E9954064A20
:1014C00032F81020521C044B23F81020421C90B21A
:1014D0000528DEDB704700009C2B0020A42800209C
:1014E0007047000010B51348006840F00100114932
:1014F000086008464068104908400E4948600846A0
:1015000000680E4908400B4908600846006820F44E
:10151000802008600846406820F4FE0048604FF4D0
:101520001F008860FFF74DFE4FF00060044908601F
:1015300010BD0000001002400000FFF8FFFFF6FEA3
:1015400008ED00E010B50121154800F045F808B39A
:1015500014480068401C134908601348008800289C
:1015600004DD11480088401C0F4908800D480068C0
:101570004FF4FA71B0FBF1F201FB120010B9012037
:101580000A490870074800680949884202D90020C2
:10159000044908600121024800F00FF810BD000066
:1015A000000400401C000020540000202000002007
:1015B000002A7515CA4302827047CA4302827047E7
:1015C00021B1028842F00102028004E002884FF655
:1015D000FE731A400280704730B502460020002397
:1015E0000024158A05EA0103958905EA010413B16F
:1015F0000CB1012000E0002030BD1AB183890B43FB
:10160000838102E083898B438381704700220288B3
:101610001D4B98420ED01D4B98420BD0B0F1804F1D
:1016200008D01B4B984205D01A4B984202D01A4B57
:10163000984204D14FF68F731A404B881A43174BC8
:10164000984207D0164B984204D04FF6FF431A40F9
:10165000CB881A4302808B8883850B8803850A4BCD
:1016600098420BD0094B984208D00E4B984205D0B7
:101670000D4B984202D00D4B984201D10B7A038654
:101680000123838270470000002C01400034014098
:101690000004004000080040000C00400010004022
:1016A0000014004000400140004401400048014057
:1016B0000EB501210220FFF7D9FC40F2E730ADF86A
:1016C00004004720ADF800000020ADF80600ADF89A
:1016D00002008DF8080069460848FFF797FF0121CE
:1016E0000648FFF767FF012211460448FFF785FF10
:1016F00001210248FFF764FF0EBD00000004004016
:101700002DE9F04781460F4690461D46002406E02D
:1017100008EB0400385C12490855601C84B2AC42E6
:10172000F6DBA521484600F073FA002406E00C48D9
:10173000015D484600F06CFA601C84B2681EA0424D
:10174000F5DA2946064800F0FFFE06463112484603
:1017500000F05EFAF1B2484600F05AFABDE8F087B0
:10176000A62B002010B540F225511D4800F002F9CB
:10177000012826D11B480078A52814D1184800F06C
:1017800041FA01280FD100240AE0174830F814006C
:1017900020B90220144921F8140003E0601CC4B2EF
:1017A000052CF2DB00BF0E4800F02CFA0D49087042
:1017B00008460078FFF72EFC40F22551084800F05B
:1017C0006FF840F22661064800F0D4F8012806D1EF
:1017D0000649087040F22661014800F061F810BD2A
:1017E0000038014022000020922B00202C00002015
:1017F00010B540F22551244800F0BCF8012833D13F
:101800002248008800280DDD0120214908801F485A
:10181000008842F21071884204DD1C480088401A9A
:101820001A4908801B480078A5280FD100240AE037
:10183000194830F8140020B90320174921F8140082
:1018400003E0601CC4B2052CF2DB00BF0E4800F0C0
:10185000D9F91049087008460078FFF717FE40F2E2
:101860002551094800F01CF840F22661064800F0B6
:1018700081F8012806D10949487040F226610248E2
:1018800000F00EF810BD000000440040520000209F
:1018900054000020230000209C2B00202C0000205E
:1018A00010B50022002340F66A14A14200D100BF07
:1018B0000A1201249440A3B2DC43048010BD21B17C
:1018C000828942F40052828104E082894DF6FF73DE
:1018D0001A4082817047000010B5044620488442B7
:1018E00009D101218803FFF7F1FB00214FF480406B
:1018F000FFF7ECFB32E01B48844209D10121480488
:10190000FFF7C4FB00214FF40030FFF7BFFB25E0D9
:101910001548844209D101218804FFF7B7FB002153
:101920004FF48020FFF7B2FB18E01048844209D141
:101930000121C804FFF7AAFB00214FF40020FFF7A4
:10194000A5FB0BE00A48844208D101210805FFF7F6
:101950009DFB00214FF48010FFF798FB10BD0000A5
:10196000003801400044004000480040004C004066
:101970000050004070B502460024002300250020DE
:1019800040F66A16B14200D100BFC1F3421501F022
:101990001F03012606FA03F3012D02D19689334075
:1019A00006E0022D02D1168A334001E0968A3340C8
:1019B0000C12012606FA04F41688344013B10CB157
:1019C000012000E0002070BDF0B503460024002691
:1019D0000025002040F66A17B94200D100BF184622
:1019E000C1F3421401F01F06012707FA06F5012C86
:1019F00001D10C3004E0022C01D1103000E0143091
:101A00001AB107682F43076002E00768AF43076019
:101A1000F0BD00007FB5002410E000250AE00020A2
:101A200004EB440101EB44213D4A02EB810148559E
:101A3000681CC5B2142DF2DB601CC4B2052CECDBB3
:101A4000012144F20500FFF731FB01214804FFF7B3
:101A50002DFB01210420FFF729FB01214804FFF79A
:101A600005FB3048FFF738FF4FF416500090002078
:101A7000ADF80400ADF80600ADF80800ADF80C00B4
:101A80000C20ADF80A006946274800F04FF8012203
:101A900040F225512448FFF797FF012240F22661CA
:101AA0002148FFF791FF01211F48FFF708FF40F28F
:101AB00025511D48FFF7F4FE40F226611A48FFF752
:101AC000EFFE4FF4165000900020ADF80400ADF882
:101AD0000600ADF80800ADF80C000C20ADF80A00C7
:101AE0006946104800F022F8012240F225510D48C5
:101AF000FFF76AFF012240F226610A48FFF764FF00
:101B000001210848FFF7DBFE40F225510548FFF7A9
:101B1000C7FE40F226610348FFF7C2FE7FBD00000A
:101B20006800002000440040003801402DE9F047E3
:101B300086B005460E460024A24600BFA1460027F7
:101B4000B08900B100BF2F462C8A4CF6FF700440CC
:101B5000F08804432C82AC894EF6F3100440B08820
:101B600031890843718908430443AC81AC8A4FF63C
:101B7000FF400440B0890443AC8201A8FFF7B6FAE5
:101B80001F48874202D1DDF810A001E0DDF80CA06B
:101B9000A88900F4004040B10AEBCA0000EB0A102B
:101BA00031684900B0FBF1F807E00AEBCA0000EB2E
:101BB0000A1031688900B0FBF1F86420B8FBF0F03E
:101BC00004012009642101FB1089A88900F4004068
:101BD00040B1322000EBC900B0FBF1F000F007008B
:101BE000044308E0322000EB09106421B0FBF1F05F
:101BF00000F00F0004432C8106B0BDE8F087000020
:101C00000038014001468888C0F308007047000092
:101C1000C1F308028280114A904207D100BF104AE6
:101C20001278002AFBD000220D4B1A700D4A904208
:101C300007D100BF0A4A5278002AFBD00022084B85
:101C40005A70094A904207D100BF054A9278002A8B
:101C5000FBD00022024B9A70704700000038014010
:101C60002C000020004400400048004000BFFEE778
:101C700010B5002400BF06E000203F4908553F4949
:101C80000855601C84B2B4F5006FF5DB002404E055
:101C900000203B490855601C84B240F60C00844289
:101CA000F6DB002404E0002036490855601C84B2AD
:101CB000962CF8DB002405E00020334921F81400BD
:101CC000601C84B2FF2CF7DD002405E000202F49C2
:101CD00021F81400601C84B2FF2CF7DD002416E00C
:101CE000002004EB84012A4A505404EB840111447F
:101CF000487004EB84011144887004EB84011144A2
:101D0000C87004EB840111440871601C84B20A2C71
:101D1000E6DB05201C4908804880092088800720D0
:101D2000C88008810920488140F608008881052084
:101D3000C881A1F8DE01A1F8FC0104201349088044
:101D40000B204880002407E0601CC1B204F58060CD
:101D5000094A1154601C84B21E2CF5DB0D48FEF7B5
:101D600025FB002005490870062048700223002248
:101D70000848FEF74BFB10BDB2330020B23B0020F9
:101D8000B24B0020BE530020F65C0020F65E00201F
:101D9000F66000200000010810B5FE480088002809
:101DA0007EDDFD4800880A2803DDFA4800882928DE
:101DB00007D1F94800881428F2DDF6480088292860
:101DC0006ED1F448008842F21071884222DDF14859
:101DD0000088401AEF4908800A461288501EC21730
:101DE00000EB5272D210ED4B9A5C0B461B88591EC9
:101DF000CB1701EB5373DB10A1EBC304802323410A
:101E00005A40E44B1B88581EC31700EB5373DB107A
:101E1000E24CE254DF48008842F2107190FBF1F28C
:101E200001FB1200282842DADA4A1088C21700EBB8
:101E30005272D210D94B9A5CD64B1988CB1701EB52
:101E40005373DB10A1EBC304802323411A43D14B0E
:101E50001888C31700EB5373DB10D04CE254FF20FB
:101E6000CF49087048700120887020460078C870FB
:101E70002046407808712046807848712046C07816
:101E8000887120460079C871C248008842F21171F9
:101E90000844C04908800120BF490880082300E0A9
:101EA00017E10022BE49BF48FFF72AFC11E1B948FB
:101EB000008842F2107190FBF1F201FB1200282819
:101EC0007ED1B648007888B9B448407870B9B34834
:101ED000807858B9B148C07840B9B048007928B97D
:101EE000B1480088401CB049088002E00020AE499B
:101EF0000880AD48008803287EDCA8480078C043ED
:101F0000AA49098801EB8101A94A5054A3484078A5
:101F1000C043A649098801EB8101114448709F48DC
:101F20008078C043A149098801EB81011144887080
:101F30009A48C078C0439D49098801EB810111444A
:101F4000C87096480079C0439849098801EB81011F
:101F50001144087195480078401C96490870FF208C
:101F60008F4908704870022088709048008800EB04
:101F700080001146085C8A49C8708C48008800EBD4
:101F800080001146084440788549087187480088D8
:101F900000EB8000114608448078814948718348ED
:101FA000008800EB800011460844C0787C498871A5
:101FB0007E48008800EB800011460844007900E06C
:101FC00038E07749C8717B490878C11700EB116187
:101FD0000912734A117277490878C11700EB116131
:101FE0000912A0EB012151720A2300226C496D48AD
:101FF000FFF786FB292000E005E066490880012004
:102000006549088065E0002065490870487088705F
:10201000C870087148718871C8715E4908805E494E
:102020000880614908805D49087048708870C870F0
:1020300008714EE000205A49087048708870C870D6
:10204000087148718871C8715249088053490870F5
:1020500048708870C87008714E4A1088C21700EB2B
:102060005272D2100B469A5C4A4B1988CB1701EB7F
:102070005373DB10A1EBC304802323411A43454B68
:102080001888C31700EB5373DB10444CE254FF2055
:102090004349087048700120887020460078C87055
:1020A0002046407808712046807848712046C078E4
:1020B000887120460079C87142F211703549088054
:1020C0000120354908800823002235493548FFF7AB
:1020D00017FB3948007806285BD006DC062873D247
:1020E000DFE800F0721090D7FEFC64286DD004DCAD
:1020F00007286BD0082867D166E1F02867D0FF2851
:10210000F9D192E1002026490870012048702B483F
:102110000078887029484078C87004230022274935
:102120002748FFF7EDFA00202649088060E00020EC
:102130001B490870022048702248008800EB80008C
:1021400000F580601D49085C154988701D480088AD
:1021500000EB800000F201401849085C1049C8708B
:102160001848008800EB800000F202401349085C28
:102170000B4908711348008800EB800000F203400F
:102180000E49085C064948710E48008800EB800043
:102190001EE0C7E052000020540000205F00002035
:1021A00054540020004400405800002056000020F5
:1021B000F660002064000020B24B002000000108FF
:1021C000003801404A00002049E127E1C1E00FE169
:1021D00000F20440CE49085CCE49887107230022F2
:1021E000CD48FFF78DFACD480088401CCB490880C8
:1021F000C7484178007801EB0020C8490988884227
:1022000095DC2CE10020C6490880C649087048705A
:102210008870C8700871C24A1088C21700EB5272E9
:10222000D2100B469A5CBE4B1988CB1701EB537347
:10223000DB10A1EBC304802323411A43B84B188859
:10224000C31700EB5373DB10B64CE254FF20B149C7
:10225000087048700120887020460078C8702046B9
:10226000407808712046807848712046C07888718F
:1022700020460079C87142F21170A94908800120F6
:10228000A949088008230022A249A848FFF738FA84
:10229000E5E000209F49087003204870A44840787A
:1022A0008870A3488078C870A148C0780871A04899
:1022B00000794871062300229748FFF721FA9C48CD
:1022C0008178407801EB0020924908700120487025
:1022D000022300229548FFF713FAC0E011E0FFE760
:1022E00000208C490870042048709148407888701C
:1022F0008F488078C870042300228748FFF700FACF
:10230000ADE0002083490870052048708848407877
:10231000887087488078C870042300227E48FFF7C1
:10232000EFF99CE000207B49087006204870804847
:10233000407888707E488078C8707D48C078087181
:102340007B4800794871042300227348FFF7D8F9CD
:1023500085E000206F490870072048707448407875
:10236000887073488078C8707148C0780871002000
:102370006A4908800DE06E4968480088001D095CC4
:102380006C48664A1288815464480088401C63493E
:10239000088062480088B0F5006FECDB644949783A
:1023A0004FF0006202EB01426149897802EB0121A2
:1023B0005F4AD2788818FDF7F9FF052300225549B6
:1023C0005548FFF79DF94AE0FF20524908704870D0
:1023D00007208870032300225448FFF791F9072053
:1023E0004C490870012300224B48FFF789F936E079
:1023F00000204A4908800BE04548484A1288815C21
:102400004548FFF705FC45480088401C43490880C3
:1024100042480088B0F5805FEEDB20E00723002211
:1024200043494548FDF7F2FF19E00020394908709B
:10243000FF20487041480078887040484078C87054
:102440003E48807808713D48C07848713B48007923
:102450008871072300223048FFF752F900BF00BF00
:1024600000202E49088009E0002131482B4A1288BB
:1024700081542A480088401C284908802748008841
:1024800040F60C018842EFDB2D480078012802D08D
:10249000022829D10AE000201E4908700120487056
:1024A000022300222148FFF72BF91DE02448407841
:1024B000184908702248807848702148C078887090
:1024C0001F480079C8701E48407908711C488079FF
:1024D00048711B48C07988710020C8710823002208
:1024E0000D48FFF70DF900BF00BF00201549088017
:1024F00009E000201249134A1288885411480088C4
:10250000401C104908800F4800889628F1DB10BD58
:102510000000010854540020003801404A00002007
:10252000520000205F0000205400002000440040C2
:10253000B24B0020B2330020FD0701085A000020F2
:10254000BE5300204E00002070B502460B464FF6E9
:10255000FF700024002500BF11E01178521C484094
:10256000002509E000F0010626B140104AF20106FC
:10257000704000E040106D1C082DF3DB641C9C4291
:10258000EBD370BDFEF77AF8FFF792F8FEF706FC82
:10259000FFF740FAFFF76CFB52211748FFF738FBB3
:1025A00061211548FFF734FB52211448FFF730FB37
:1025B00061211248FFF72CFB1DE0FFF7EDFBFEF752
:1025C00035FCFEF773FE0E480078012813D1C102D6
:1025D0000C48FEF797FB012805D10022C1020948EB
:1025E000FEF799FB04E00122D1020648FEF793FBB7
:1025F000002003490870E0E7003801400044004033
:1026000020000020000C01400018010800000020FC
:10261000680000006C0100086818010868000020CC
:102620002069000088010008000000000000000090
:10263000000000000000000000000000000000009A
:10264000000000000000000000000000000000008A
:10265000000000000000000000000000000000007A
:10266000000000000000000000000000000000006A
:020000040801F1
:1018000000000000010203040102030406070809A6
:1018100002040608000000000000000000000000B4
:1018200000000000000000000000000000000000B8
:1018300000000000000000000000000004000000A4
:101840000000000000000000000000000000000098
:101850000000000000000000000001020304050079
:08186000000000000000000080
:0400000508000131BD
:00000001FF
