:020000040800F2
:1000000080690020CD010008F11400080D0C0008E3
:10001000ED140008870200083524000800000000E5
:100020000000000000000000000000008919000826
:100030008B0200080000000031180008A91C00080D
:10004000E7010008E7010008E7010008E7010008F0
:10005000E7010008E7010008E7010008E7010008E0
:10006000E7010008E7010008E7010008E7010008D0
:10007000E7010008E7010008E7010008E7010008C0
:10008000E7010008E7010008E7010008E7010008B0
:10009000E7010008E7010008E7010008E7010008A0
:1000A000E7010008E7010008E7010008E701000890
:1000B000E70100080D1D0008E7010008E70100083E
:1000C000E7010008E7010008E7010008E701000870
:1000D000E70100082D1F0008B91F0008E70100080C
:1000E000E7010008E7010008E7010008E701000850
:1000F000E7010008E7010008E7010008E701000840
:10010000E7010008E7010008E7010008E70100082F
:10011000E7010008E7010008E7010008E70100081F
:10012000E7010008E7010008E7010008E70100080F
:1001300000F002F800F03AF80AA090E8000C8244BF
:100140008344AAF10107DA4501D100F02FF8AFF29C
:10015000090EBAE80F0013F0010F18BFFB1A43F0A5
:1001600001031847A4230000C4230000103A24BF51
:1001700078C878C1FAD8520724BF30C830C144BF0C
:1001800004680C607047000000230024002500264E
:10019000103A28BF78C1FBD8520728BF30C148BFEA
:1001A0000B6070471FB51FBD10B510BD00F031F8D2
:1001B0001146FFF7F7FF02F065F900F04FF803B4BE
:1001C000FFF7F2FF03BC00F057F800000948804732
:1001D00009480047FEE7FEE7FEE7FEE7FEE7FEE729
:1001E000FEE7FEE7FEE7FEE704480549054A064B41
:1001F00070470000AD1C000831010008806100203C
:100200008069002080630020806300207047704771
:100210007047754600F02CF8AE4605006946534617
:1002200020F00700854618B020B5FFF7DDFFBDE8D8
:1002300020404FF000064FF000074FF000084FF04D
:10024000000B21F00701AC46ACE8C009ACE8C009DE
:10025000ACE8C009ACE8C0098D46704710B504464B
:10026000AFF300802046BDE81040FFF7A8BF0000B4
:10027000004870472061002001491820ABBEFEE70E
:1002800026000200704700BFFEE770470149C860C2
:10029000704700000020024030B5044604254FF4AA
:1002A000302000F06FF80546042D17D10C48006986
:1002B00040F002000A49086108464461006940F0C4
:1002C000400008614FF4302000F05CF80546044817
:1002D000006941F6FD71084001490861284630BDBA
:1002E0000020024004200B49C96801F0010109B156
:1002F00001200EE00749C96801F0040109B102209C
:1003000007E00449C96801F0100109B1032000E0C9
:1003100004207047002002400348006940F080003C
:1003200001490861704700000020024070B5044692
:100330000D460426F00200F025F80646042E11D1E1
:100340000948006940F00100074908612580F00272
:1003500000F018F806460448006941F6FE710840AE
:1003600001490861304670BD00200240024803493F
:1003700048600348486070472301674500200240F9
:10038000AB89EFCD00B502460423FFF7ABFF034670
:1003900003E0FFF7A7FF0346521E012B01D1002AFD
:1003A000F7D102B90523184600BD000070B5054617
:1003B00000240026012080F3108800BFFFF7D6FF3D
:1003C0003420FFF763FF2846FFF766FF00BF11E008
:1003D0000D4810F81410012000EB44000A4A105C8C
:1003E00001EB002086B231462846FFF79FFFAD1C87
:1003F000601C84B2B4F5806FEADBFFF78DFF00204C
:1004000080F3108800BF70BDAA3300202DE9F041B1
:1004100004460D4616461F46C4F30A00201A4949F1
:10042000086008460068484988427DD30020474953
:10043000086011E0434800684349401A434909688D
:1004400008444349085C4349404A126888543F487D
:100450000068401C3D4908603C480068B0F5006FEA
:10046000E8D3C4F30A003949086028E03748006837
:10047000B0F5006F0BD2C4F30A0034490968081ABA
:100480003044295C3348314A1268815412E0C4F385
:100490000A002E490968081A3044295C2B48006874
:1004A000A0F500602C4A115428480088A0F500608F
:1004B0002A49088025480068401C24490860C4F384
:1004C0000A003844214909688842CFD81D4800688D
:1004D000FFF76CFF21480088002831DD00201B4910
:1004E000086020E0194800681C490988884208D83B
:1004F000194816490968415C1648144A1268815423
:100500000CE0104800681649401A10490968084470
:100510000F49085C0F490D4A126888540B4800685F
:10052000401C0A49086000E00AE008480068B0F58D
:10053000006FD7D30348006800F50060FFF736FF6F
:10054000BDE8F08138000020000001083C000020D8
:1005500000000108AA330020AA4300204000002028
:1005600000F800082DE9F041024600250026002091
:1005700000230024002791F803C00CF00F0591F828
:1005800003C00CF0100CBCF1000F03D091F802C0B6
:100590004CEA050591F800C0BCF1000F31D0146899
:1005A00000202BE04FF0010C0CFA00F3B1F800C072
:1005B0000CEA03069E4220D183004FF00F0C0CFA88
:1005C00003F7BC4305FA03FC4CEA040491F803C0AA
:1005D000BCF1280F06D14FF0010C0CFA00FCC2F858
:1005E00014C00AE091F803C0BCF1480F05D14FF0E8
:1005F000010C0CFA00FCC2F810C0401C0828D1D332
:100600001460B1F800C0BCF1FF0F34DD5468002065
:100610002EE000F1080C4FF0010808FA0CF3B1F8D5
:1006200000C00CEA03069E4221D183004FF00F0C5C
:100630000CFA03F7BC4305FA03FC4CEA040491F8F6
:1006400003C0BCF1280F05D100F1080C08FA0CF822
:10065000C2F8148091F803C0BCF1480F07D100F133
:10066000080C4FF0010808FA0CF8C2F81080401C82
:100670000828CED35460BDE8F081000038B50024CE
:1006800001213C2001F0F6F80121084600F068FA4B
:100690000121FE4800F064FA02208DF8020000BF3C
:1006A00055E20020ADF80000082C25D2DFE804F068
:1006B00004080C1014181C2000208DF803001BE007
:1006C00004208DF8030017E028208DF8030013E0C4
:1006D00048208DF803000FE014208DF803000BE094
:1006E00010208DF8030007E01C208DF8030003E0C4
:1006F00018208DF8030000BF00BF012C05D1BDF804
:10070000000040F00100ADF80000012C05D1BDF85B
:10071000000040F00200ADF80000072C05D1BDF844
:10072000000040F00400ADF80000012C05D1BDF838
:10073000000040F00800ADF80000012C05D1BDF824
:10074000000040F01000ADF80000012C05D1BDF80C
:10075000000040F02000ADF80000012C05D1BDF8EC
:10076000000040F04000ADF80000022C05D1BDF8BB
:10077000000040F08000ADF80000022C05D1BDF86B
:10078000000040F48070ADF80000072C05D1BDF8E2
:10079000000040F40070ADF80000012C05D1BDF858
:1007A000000040F48060ADF80000012C05D1BDF8D8
:1007B000000040F40060ADF80000072C05D1BDF842
:1007C000000040F48050ADF80000022C05D1BDF8C7
:1007D000000040F40050ADF80000052C05D1BDF834
:1007E000000040F48040ADF80000012C05D1BDF8B8
:1007F000000040F40040ADF800006946A448FFF74F
:10080000B1FE0020ADF80000022C05D1BDF80000BB
:1008100040F00100ADF80000022C05D1BDF8000049
:1008200040F00200ADF80000022C05D1BDF8000038
:1008300040F00400ADF80000052C05D1BDF8000023
:1008400040F00800ADF80000052C05D1BDF800000F
:1008500040F01000ADF80000022C05D1BDF80000FA
:1008600040F02000ADF80000052C05D1BDF80000D7
:1008700040F04000ADF80000022C05D1BDF80000AA
:1008800040F08000ADF80000022C05D1BDF800005A
:1008900040F48070ADF80000022C05D1BDF80000D6
:1008A00040F40070ADF80000022C05D1BDF8000046
:1008B00040F48060ADF80000052C05D1BDF80000C3
:1008C00040F40060ADF80000052C05D1BDF8000033
:1008D00040F48050ADF80000052C05D1BDF80000B3
:1008E00040F40050ADF80000052C05D1BDF8000023
:1008F00040F48040ADF80000052C05D1BDF80000A3
:1009000040F40040ADF8000069466248FFF72AFE57
:100910000020ADF80000052C05D1BDF8000040F026
:100920000100ADF80000012C05D1BDF8000040F039
:100930000200ADF80000012C05D1BDF8000040F028
:100940000400ADF80000012C05D1BDF8000040F016
:100950000800ADF80000012C05D1BDF8000040F002
:100960001000ADF80000022C05D1BDF8000040F0E9
:100970002000ADF80000052C05D1BDF8000040F0C6
:100980004000ADF80000052C05D1BDF8000040F096
:100990008000ADF80000052C05D1BDF8000040F442
:1009A0008070ADF80000052C05D1BDF8000040F4C2
:1009B0000070ADF80000052C05D1BDF8000040F432
:1009C0008060ADF80000052C05D1BDF8000040F4B2
:1009D0000060ADF80000052C05D1BDF8000040F422
:1009E0008050ADF80000022C05D1BDF8000040F4A5
:1009F0000050ADF80000022C05D1BDF8000040F415
:100A00008040ADF80000022C05D1BDF8000040F494
:100A10000040ADF8000069461F48FFF7A3FD002025
:100A2000ADF80000012C05D1BDF8000040F0010038
:100A3000ADF80000012C05D1BDF8000040F0020027
:100A4000ADF80000052C05D1BDF8000040F0040011
:100A5000ADF80000012C05D1BDF8000040F0080001
:100A6000ADF80000012C05D1BDF8000040F01000E9
:100A7000ADF80000012C05D1BDF8000040F02000C9
:100A8000ADF80000012C0FD108E00000000230009A
:100A900000080140000C014000100140BDF80000BA
:100AA00040F04000ADF80000012C05D1BDF8000079
:100AB00040F08000ADF80000012C05D1BDF8000029
:100AC00040F48070ADF80000012C05D1BDF80000A5
:100AD00040F40070ADF80000012C05D1BDF8000015
:100AE00040F48060ADF80000012C05D1BDF8000095
:100AF00040F40060ADF80000012C05D1BDF8000005
:100B000040F48050ADF80000012C05D1BDF8000084
:100B100040F40050ADF80000012C05D1BDF80000F4
:100B200040F48040ADF80000012C05D1BDF8000074
:100B300040F40040ADF8000069460748FFF712FD99
:100B400001225102054800F05CF8601CC4B2082C78
:100B5000FFF6A7AD38BD00000014014000100140B1
:100B6000F0B50A46002300240021002500F00046CD
:100B7000B6F1004F02D11D4EF16901E01B4E7168C4
:100B8000C0F3034583B200F44016B6F5401F08D108
:100B900021F07061154E766826F07066134F7E6006
:100BA00012E000F48016B6F5801F06D1032606FA7F
:100BB00005F4A14341F0706106E0460D360103FAE9
:100BC00006F6B14341F0706122B1460D360103FAD9
:100BD00006F6314300F00046B6F1004F02D1034E55
:100BE000F16101E0014E7160F0BD000000000140C4
:100BF0000246002093680B400BB1012000E000206A
:100C000070470AB1016100E04161704700BFFEE733
:100C100010B5002400BF06E000203F4908553F49B9
:100C20000855601C84B2B4F5006FF5DB002404E0C5
:100C300000203B490855601C84B240F60C008442F9
:100C4000F6DB002404E0002036490855601C84B21D
:100C5000962CF8DB002405E00020334921F814002D
:100C6000601C84B2FF2CF7DD002405E000202F4932
:100C700021F81400601C84B2FF2CF7DD002416E07C
:100C8000002004EB84012A4A505404EB84011144EF
:100C9000487004EB84011144887004EB8401114412
:100CA000C87004EB840111440871601C84B20A2CE2
:100CB000E6DB05201C490880488009208880072041
:100CC000C88008810920488140F6080088810520F5
:100CD000C881A1F8DE01A1F8FC01042013490880B5
:100CE0000B204880002407E0601CC1B204F580603E
:100CF000094A1154601C84B21E2CF5DB0D48FFF725
:100D000055FB002005490870062048700223002288
:100D10000848FFF77BFB10BDAA330020AA3B002048
:100D2000AA4B0020B6530020EE5C0020EE5E0020AF
:100D3000EE6000200000010810B5CE4800880028B1
:100D40007EDDCD4800880A2803DDCA4800882928AE
:100D500007D1C94800881428F2DDC6480088292830
:100D60006ED1C448008842F21071884222DDC14829
:100D70000088401ABF4908800A461288501EC217D0
:100D800000EB5272D210BD4B9A5C0B461B88591E69
:100D9000CB1701EB5373DB10A1EBC304802323417A
:100DA0005A40B44B1B88581EC31700EB5373DB101B
:100DB000B24CE254AF48008842F2107190FBF1F25D
:100DC00001FB1200282842DAAA4A1088C21700EB59
:100DD0005272D210A94B9A5CA64B1988CB1701EB23
:100DE0005373DB10A1EBC304802323411A43A14BAF
:100DF0001888C31700EB5373DB10A04CE254FF209C
:100E00009F49087048700120887020460078C8709B
:100E10002046407808712046807848712046C07886
:100E2000887120460079C8719248008842F2117199
:100E300008449049088001208F490880082300E079
:100E400017E100228E498F4801F03EF811E18948F0
:100E5000008842F2107190FBF1F201FB1200282889
:100E60007ED18648007888B98448407870B9834834
:100E7000807858B98148C07840B98048007928B94D
:100E800081480088401C8049088002E000207E499B
:100E900008807D48008803287EDC78480078C043BD
:100EA0007A49098801EB8101794A505473484078A6
:100EB000C0437649098801EB8101114448706F48AD
:100EC0008078C0437149098801EB81011144887021
:100ED0006A48C078C0436D49098801EB810111441B
:100EE000C87066480079C0436849098801EB8101F0
:100EF0001144087165480078401C66490870FF205D
:100F00005F4908704870022088706048008800EBD4
:100F100080001146085C5A49C8705C48008800EBA4
:100F200080001146084440785549087157480088A8
:100F300000EB8000114608448078514948715348BD
:100F4000008800EB800011460844C0784C49887145
:100F50004E48008800EB800011460844007900E00C
:100F600038E04749C8714B490878C11700EB116157
:100F70000912434A117247490878C11700EB116101
:100F80000912A0EB012151720A2300223C493D487D
:100F900000F09AFF292000E005E036490880012092
:100FA0003549088065E00020354908704870887030
:100FB000C870087148718871C8712E4908802E491F
:100FC0000880314908802D49087048708870C870C1
:100FD00008714EE000202A49087048708870C87077
:100FE000087148718871C8712249088023490870C6
:100FF00048708870C87008711E4A1088C21700EBCC
:101000005272D2100B469A5C1A4B1988CB1701EB1F
:101010005373DB10A1EBC304802323411A43154B08
:101020001888C31700EB5373DB10144CE254FF20F5
:101030001349087048700120887020460078C870F5
:101040002046407808712046807848712046C07854
:10105000887120460079C87142F2117005490880F4
:10106000012005490880082300220549054800F0B1
:101070002BFF10BD4A0000204C000020570000202C
:101080004C54002000440040500000204E0000203E
:10109000EE6000205C00002010B5E04800780628D3
:1010A00074D006DC062870D2DFE800F06F1073BC45
:1010B000E1F364286BD004DC072869D0082864D1E8
:1010C0004AE1F0287DD0FF28F9D176E10020D4490B
:1010D000087001204870D34800788870D148407863
:1010E000C87004230022CF49CF4800F0EDFE002055
:1010F000CE49088040E00020C949087002204870AD
:10110000CA48008800EB800000F58060C549085C93
:10111000C3498870C548008800EB800000F2014098
:10112000C049085CBE49C870C048008800EB800018
:1011300000F20240BB49085CB9490871BB4800880D
:1011400000EB800000F20340B649085CB4494871E6
:10115000B648008800EB800000F20440B149085C0A
:10116000AF49887107230022AF4800F0ADFEAF48B9
:101170000088401CAD490880AA484178007801EBFE
:101180000020AA4909888842B5DC30E192E00DE1EF
:10119000A7E00020A6490880A6490870487088701A
:1011A000C8700871A24A1088C21700EB5272D210A0
:1011B0000B469A5C9E4B1988CB1701EB5373DB10DF
:1011C00000E0DDE0A1EBC304802323411A43984BE8
:1011D0001888C31700EB5373DB10964CE254FF20C2
:1011E0008F49087048700120887020460078C870C8
:1011F0002046407808712046807848712046C078A3
:10120000887120460079C87142F2117088490880BF
:10121000012089490880082300228149874800F07D
:1012200053FEE4E000207E490870032048707B48AC
:101230004078887079488078C8707848C07808719C
:1012400076480079487106230022774800F03CFE7A
:1012500072488178407801EB0020714908700120C4
:10126000487002230022754800F02EFEBFE00020E7
:101270006B49087004204870684840788870674857
:101280008078C87004230022674800F01DFEAEE09D
:10129000FFE7002062490870052048705F484078E9
:1012A00088705E488078C870042300225E4800F091
:1012B0000BFE9CE000205A490870062048705748F1
:1012C0004078887055488078C8705448C078087154
:1012D00052480079487104230022534800F0F4FD7D
:1012E00085E000204E490870072048704B48407840
:1012F00088704A488078C8704848C07808710020D3
:101300004A4908800DE0454948480088001D095CAD
:101310004B48464A1288815444480088401C43493F
:10132000088042480088B0F5006FECDB3B49497803
:101330004FF0006202EB01423849897802EB01214B
:10134000364AD2788818FFF731F80523002234494D
:10135000354800F0B9FD4AE0FF2031490870487077
:101360000720887003230022344800F0ADFD0720D9
:101370002B490870012300222B4800F0A5FD36E020
:1013800000202A4908800BE02648284A1288815C00
:10139000254801F021F825480088401C2349088091
:1013A00022480088B0F5805FEEDB20E007230022B2
:1013B0001A492448FFF72AF819E000201849087054
:1013C000FF2048702048007888701F484078C87017
:1013D0001D48807808711C48C07848711A48007907
:1013E000887107230022104800F06EFD00BF00BF87
:1013F00000200E49088009E0002108480B4A1288A5
:1014000081540A480088401C084908800748008821
:1014100040F60C018842EFDB10BD0000AA4B002013
:101420004C54002000000108003801404200002018
:101430004A000020570000204C00002000440040DB
:10144000AA330020FD0701085200002010B52248F1
:101450000078012802D0022829D10AE000201F4983
:10146000087001204870022300221D4800F02CFD66
:101470001DE019484078194908701748807848706D
:101480001548C078887014480079C87012484079AF
:1014900008711148807948710F48C079887100201F
:1014A000C871082300220F4800F00EFD00BF00BFE6
:1014B00000200D49088009E0002007490A4A1288E7
:1014C000885409480088401C07490880064800885D
:1014D0009628F1DB10BD0000B65300204C540020CC
:1014E00000440040003801404600002000BFFEE7F5
:1014F0007047000070B5002100230F22C47804B3A8
:10150000154C246804F4E064C4F5E064210AC1F1D8
:101510000403CA40447804FA03F184781440214358
:1015200009010E4C0678A155047804F01F0501242A
:10153000AC4005786D11AD0005F1E025C5F800411E
:1015400009E0047804F01F050124AC40044D06783E
:10155000761145F8264070BD0CED00E000E400E097
:1015600080E100E008B54FF4A06000F039F81D20DC
:101570008DF8000002208DF801008DF80200012096
:101580008DF803006846FFF7B5FF25208DF80000B1
:1015900002208DF801008DF8020001208DF8030073
:1015A0006846FFF7A7FF26208DF8000002208DF87F
:1015B00001008DF8020001208DF803006846FFF756
:1015C00099FF14208DF8000002208DF801008DF89D
:1015D000020001208DF803006846FFF78BFF08BD6D
:1015E00002490143024A1160704700000000FA05F9
:1015F0000CED00E010B5002072490880DCE0714875
:10160000008800EB400101EB40206F4911F82000F9
:10161000401E6E4931F8100004287DDD6C48694990
:10162000098830F811106748008800EB400202EB8F
:101630004020654A12F82000401E644A32F810002B
:1016400081426ADD5F4A128802EB420303EB4222C9
:101650005D4B13F82220521E5C4B33F81220111FF1
:10166000584A128802EB420303EB4222564B03EB2B
:10167000820000F0E9FE04465248008800EB400179
:1016800001EB4020504901EB80014E48008800EBFF
:10169000400202EB40204C4A12F82000401E4B4A08
:1016A00032F81000001F085CB0EB242F3CD14548F5
:1016B000008800EB400101EB4020434901EB800131
:1016C0004048008800EB400202EB40203E4A12F8FE
:1016D0002000401E3D4A32F81000C01E085CE1B2F6
:1016E000884221D100203B49088014E03548008819
:1016F00000EB400101EB4020334901EB800035490C
:101700000988405C3449334A12888854314800883B
:10171000401C3049088001E028E048E02D4800885E
:1017200040F60C018842E1DB00202949254A128855
:1017300021F812002749088011E00020214909887A
:1017400001EB410202EB41211F4A02EB8101214AD8
:10175000128888541F480088401C1E4908801D4874
:10176000008840F60C018842E7DB20E000201849A1
:10177000144A128821F812001649088011E000204E
:101780001049098801EB410202EB41210E4A02EBAC
:101790008101104A128888540E480088401C0D4967
:1017A00008800C48008840F60C018842E7DB0548B9
:1017B0000088401C03490880024800880528FFF67D
:1017C0001EAF10BD1C00002060000020EE5C002059
:1017D0008A2B00201E000020AA4B0020014600207A
:1017E0001EE0114A32F81020002A17DD0E4A32F8A6
:1017F0001020022A0BDD00EB400202EB40220B4BD3
:1018000003EB8203084A32F81020D21E9954064A8C
:1018100032F81020521C044B23F81020421C90B2C6
:101820000528DEDB704700008A2B002060000020C6
:101830007047000029B1064AD2690243044BDA61BD
:1018400004E0034AD2698243014BDA617047000029
:101850000010024029B1064A12690243044B1A6182
:1018600004E0034A12698243014B1A617047000089
:101870000010024029B1064A92690243044B9A6162
:1018800004E0034A92698243014B9A617047000069
:101890000010024029B1064AD2680243044BDA60C4
:1018A00004E0034AD2688243014BDA6070470000CB
:1018B0000010024030B500210022002400232D4DED
:1018C0006D6805F00C0121B1042905D0082923D148
:1018D00005E0294D056022E0274D05601FE0254DFC
:1018E0006D6805F47012234D6D6805F4803402258F
:1018F00005EB92421CB9214D554305600BE01D4D8F
:101900006D6805F400351DB11C4D5543056002E0BE
:10191000194D5543056002E0174D056000BF00BF3B
:10192000144D6D6805F0F0010909154D6B5C0568F3
:10193000DD4045600F4D6D6805F4E061090A104D0A
:101940006B5C4568DD4085600A4D6D6805F460514B
:10195000C90A0B4D6B5C4568DD40C560054D6D687F
:1019600005F44041890B074D6B5CC568B5FBF3F589
:10197000056130BD0010024000127A0000093D00F0
:101980000000002010000020704710B500F002F8A1
:1019900010BD00000CB50020019000903348006895
:1019A00040F480303149086000BF3048006800F4DE
:1019B000003000900198401C0190009818B90198DF
:1019C000B0F5A06FF1D12948006800F4003010B1E3
:1019D0000120009001E0002000900098012843D1F0
:1019E0002348006840F0100021490860084600685C
:1019F00020F0030008600846006840F0020008601C
:101A00001A484068194948600846406848600846D6
:101A1000406840F4806048600846406820F47C10CC
:101A200048600846406840F4E8104860084600688E
:101A300040F08070086000BF0C48006800F0007043
:101A40000028F9D00948406820F0030007494860A1
:101A50000846406840F00200486000BF0348406804
:101A600000F00C000828F9D10CBD00000010024065
:101A70000020024010B5002070490880D7E06F4870
:101A80000088C0EB001000EB80006D4911F81000D9
:101A9000401E6C4931F8100004287DDD6A48674912
:101AA000098830F8111065480088C0EB001000EB81
:101AB0008000634A12F81000401E624A32F810009B
:101AC00081426ADD5D4A1288C2EB021202EB820299
:101AD0005B4B13F81220521E5A4B33F81220D11EC2
:101AE000564A1288C2EB021202EB8202544B03EBFD
:101AF000420000F0A9FC044650480088C0EB0010EA
:101B000000EB80004E4901EB40014C480088C0EBDF
:101B1000001000EB80004A4A12F81000401E494AAB
:101B200032F81000C01E085CB0EB242F3AD14348B5
:101B30000088C0EB001000EB8000414901EB400140
:101B40003E480088C0EB001000EB80003C4A12F8D1
:101B50001000401E3B4A32F81000801E085CE1B2C3
:101B600088421FD100203949088014E0334800889A
:101B7000C0EB001000EB8000314901EB400033491D
:101B80000988415C3248314A128881542F480088C4
:101B9000401C2E49088001E025E043E02B480088E6
:101BA0009628E3DB00212848244A128820F81210E6
:101BB00000202649088011E0002020490988C1EB57
:101BC000011101EB81011E4A02EB41011F4A1288FB
:101BD00088541E480088401C1C4908801B48008807
:101BE0009628E9DB1EE000201749144A128821F8E4
:101BF00012001649088011E0002010490988C1EB45
:101C0000011101EB81010E4A02EB41010F4A1288DA
:101C100088540E480088401C0C4908800B480088F6
:101C20009628E9DB05480088401C044908800348E1
:101C300000880528FFF623AF10BD0000200000201B
:101C40009C280020EE5E0020942B00202200002023
:101C5000B6530020014600201EE0114A32F8102041
:101C6000002A17DD0E4A32F81020022A0BDDC0EBE5
:101C7000001202EB82020B4B03EB4203084A32F8DC
:101C80001020D21E9954064A32F81020521C044BE0
:101C900023F81020421C90B20528DEDB70470000BC
:101CA000942B00209C2800207047000010B513489A
:101CB000006840F00100114908600846406810497A
:101CC00008400E494860084600680E4908400B4924
:101CD00008600846006820F48020086008464068D4
:101CE00020F4FE0048604FF41F008860FFF74DFEAF
:101CF0004FF000600449086010BD00000010024071
:101D00000000FFF8FFFFF6FE08ED00E010B501212E
:101D1000154800F045F808B314480068401C134902
:101D2000086013480088002804DD11480088401C22
:101D30000F4908800D4800684FF4FA71B0FBF1F2CA
:101D400001FB120010B901200A4908700748006819
:101D50000949884202D9002004490860012102484B
:101D600000F00FF810BD0000000400401400002037
:101D70004C00002018000020002A7515CA4302827A
:101D80007047CA430282704721B1028842F00102C3
:101D9000028004E002884FF6FE731A40028070470A
:101DA00030B50246002000230024158A05EA01030D
:101DB000958905EA010413B10CB1012000E000206F
:101DC00030BD1AB183890B43838102E083898B4341
:101DD00083817047002202881D4B98420ED01D4B14
:101DE00098420BD0B0F1804F08D01B4B984205D0E1
:101DF0001A4B984202D01A4B984204D14FF68F7377
:101E00001A404B881A43174B984207D0164B9842FA
:101E100004D04FF6FF431A40CB881A4302808B88C8
:101E200083850B8803850A4B98420BD0094B984257
:101E300008D00E4B984205D00D4B984202D00D4B66
:101E4000984201D10B7A03860123838270470000F8
:101E5000002C014000340140000400400008004014
:101E6000000C004000100040001400400040014001
:101E700000440140004801400EB501210220FFF757
:101E8000D9FC40F2E730ADF804004720ADF800007F
:101E90000020ADF80600ADF802008DF80800694694
:101EA0000848FFF797FF01210648FFF767FF012267
:101EB00011460448FFF785FF01210248FFF764FF40
:101EC0000EBD0000000400402DE9F04781460F469A
:101ED00090461D46002406E008EB0400385C1249D9
:101EE0000855601C84B2AC42F6DBA521484600F0E0
:101EF00073FA002406E00C48015D484600F06CFAD5
:101F0000601C84B2681EA042F5DA2946064800F03B
:101F10009BFA06463112484600F05EFAF1B2484696
:101F200000F05AFABDE8F0879E2B002010B540F271
:101F300025511D4800F002F9012826D11B480078E0
:101F4000A52814D1184800F041FA01280FD1002427
:101F50000AE0174830F8140020B90220144921F88B
:101F6000140003E0601CC4B2052CF2DB00BF0E4875
:101F700000F02CFA0D49087008460078FFF72EFC97
:101F800040F22551084800F06FF840F226610648FB
:101F900000F0D4F8012806D10649087040F2266105
:101FA000014800F061F810BD003801401A0000201F
:101FB0008A2B00202400002010B540F2255124482F
:101FC00000F0BCF8012833D12248008800280DDD3C
:101FD0000120214908801F48008842F21071884280
:101FE00004DD1C480088401A1A4908801B48007804
:101FF000A5280FD100240AE0194830F8140020B9B0
:102000000320174921F8140003E0601CC4B2052C1A
:10201000F2DB00BF0E4800F0D9F9104908700846FD
:102020000078FFF717FE40F22551094800F01CF830
:1020300040F22661064800F081F8012806D10949DE
:10204000487040F22661024800F00EF810BD000012
:10205000004400404A0000204C0000201B000020EB
:10206000942B00202400002010B50022002340F60D
:102070006A14A14200D100BF0A1201249440A3B205
:10208000DC43048010BD21B1828942F40052828178
:1020900004E082894DF6FF731A4082817047000088
:1020A00010B504462048844209D101218803FFF776
:1020B000F1FB00214FF48040FFF7ECFB32E01B48BE
:1020C000844209D101214804FFF7C4FB00214FF4E9
:1020D0000030FFF7BFFB25E01548844209D10121FC
:1020E0008804FFF7B7FB00214FF48020FFF7B2FB15
:1020F00018E01048844209D10121C804FFF7AAFB67
:1021000000214FF40020FFF7A5FB0BE00A488442B2
:1021100008D101210805FFF79DFB00214FF4801035
:10212000FFF798FB10BD000000380140004400405C
:1021300000480040004C00400050004070B502468E
:10214000002400230025002040F66A16B14200D189
:1021500000BFC1F3421501F01F03012606FA03F385
:10216000012D02D19689334006E0022D02D1168A54
:10217000334001E0968A33400C12012606FA04F43B
:102180001688344013B10CB1012000E0002070BD6E
:10219000F0B50346002400260025002040F66A170B
:1021A000B94200D100BF1846C1F3421401F01F0626
:1021B000012707FA06F5012C01D10C3004E0022CAE
:1021C00001D1103000E014301AB107682F430760C6
:1021D00002E00768AF430760F0BD00007FB5002450
:1021E00010E000250AE0002004EB440101EB44214B
:1021F0003D4A02EB81014855681CC5B2142DF2DB43
:10220000601CC4B2052CECDB012144F20500FFF791
:1022100031FB01214804FFF72DFB01210420FFF7CA
:1022200029FB01214804FFF705FB3048FFF738FF81
:102230004FF4165000900020ADF80400ADF80600F1
:10224000ADF80800ADF80C000C20ADF80A006946A6
:10225000274800F04FF8012240F225512448FFF7AB
:1022600097FF012240F226612148FFF791FF0121EB
:102270001F48FFF708FF40F225511D48FFF7F4FE05
:1022800040F226611A48FFF7EFFE4FF41650009017
:102290000020ADF80400ADF80600ADF80800ADF878
:1022A0000C000C20ADF80A006946104800F022F836
:1022B000012240F225510D48FFF76AFF012240F24A
:1022C00026610A48FFF764FF01210848FFF7DBFE9B
:1022D00040F225510548FFF7C7FE40F2266103484A
:1022E000FFF7C2FE7FBD00006000002000440040F8
:1022F000003801402DE9F04786B005460E4600241F
:10230000A24600BFA1460027B08900B100BF2F46FA
:102310002C8A4CF6FF700440F08804432C82AC8970
:102320004EF6F3100440B0883189084371890843A0
:102330000443AC81AC8A4FF6FF400440B0890443AB
:10234000AC8201A8FFF7B6FA1F48874202D1DDF838
:1023500010A001E0DDF80CA0A88900F4004040B115
:102360000AEBCA0000EB0A1031684900B0FBF1F833
:1023700007E00AEBCA0000EB0A1031688900B0FBE5
:10238000F1F86420B8FBF0F004012009642101FB9E
:102390001089A88900F4004040B1322000EBC90048
:1023A000B0FBF1F000F00700044308E0322000EB3E
:1023B00009106421B0FBF1F000F00F0004432C8100
:1023C00006B0BDE8F087000000380140014688886B
:1023D000C0F3080070470000C1F308028280114A70
:1023E000904207D100BF104A1278002AFBD0002289
:1023F0000D4B1A700D4A904207D100BF0A4A52781D
:10240000002AFBD00022084B5A70094A904207D19B
:1024100000BF054A9278002AFBD00022024B9A7036
:1024200070470000003801402400002000440040B4
:102430000048004000BFFEE710B5FEF77DFCFEF748
:102440002BFEFFF703F810BD70B502460B464FF6A2
:10245000FF700024002500BF11E01178521C484095
:10246000002509E000F0010626B140104AF20106FD
:10247000704000E040106D1C082DF3DB641C9C4292
:10248000EBD370BDFEF7FAF8FFF7F6FCFFF76AF83A
:10249000FFF7A4FEFEF7BCFB52211748FFF79CFF95
:1024A00061211548FFF798FF52211448FFF794FF68
:1024B00061211248FFF790FF1DE0FFF7BDFFFFF716
:1024C00099F8FFF7D7FA0E480078012813D1C10216
:1024D0000C48FEF78DFB012805D10022C1020948F6
:1024E000FEF78FFB04E00122D1020648FEF789FBCC
:1024F000002003490870E0E7003801400044004034
:1025000018000020000C0140001801080000002005
:10251000600000006C0100086018010860000020E5
:102520002069000088010008000000000000000091
:10253000000000000000000000000000000000009B
:10254000000000000000000000000000000000008B
:10255000000000000000000000000000000000007B
:10256000000000000000000000000000000000006B
:020000040801F1
:1018000000000000010203040102030406070809A6
:1018100002040608000000000000000000000000B4
:1018200000000000000000000000000000000000B8
:1018300000000000040000000000000000000000A4
:101840000000000000000000000000000000000098
:101850000000010203040500000000000000000079
:0400000508000131BD
:00000001FF
